:020000040800F2
:10000000B80B00246D030008332500082F210008D9
:100010003125000873040008CD2D00080000000001
:10002000000000000000000000000000812B00081C
:1000300075040008000000003D290008832B00081B
:100040008703000887030008870300088703000868
:100050008703000887030008870300088703000858
:100060008703000887030008870300088703000848
:100070008703000887030008870300088703000838
:100080008703000887030008870300088703000828
:100090008703000887030008870300088703000818
:1000A0008703000887030008870300088703000808
:1000B00087030008870300088703000887030008F8
:1000C00087030008870300088703000887030008E8
:1000D00087030008870300088703000887030008D8
:1000E000870300088703000800000000870300085A
:1000F00087030008870300088703000887030008B8
:1001000087030008870300088703000887030008A7
:10011000870300088703000887030008DD2C000818
:100120008703000887030008870300088703000887
:100130008703000887030008870300088703000877
:1001400000000000000000000000000000000000AF
:100150008703000887030008870300088703000857
:100160008703000887030008870300088703000847
:1001700087030008870300088703000800000000C9
:100180008703000887030008870300088703000827
:100190008703000887030008870300088703000817
:1001A0008703000887030008870300080000000099
:1001B00087030008870300088703000887030008F7
:1001C000870300088703000800000000000000000B
:1001D000000000000000000087030008000000008D
:1001E000000000000000000000000000000000000F
:1001F00000000000000000008703000887030008DB
:100200008703000887030008000000008703000838
:100210008703000887030008870300088703000896
:1002200087030008000000008703000800000000AA
:100230008703000887030008000000008703000808
:100240008703000887030008870300088703000866
:100250008703000887030008870300088703000856
:100260008703000887030008870300088703000846
:1002700087030008870300088703000800000000C8
:100280008703000887030008870300088703000826
:10029000000000008703000887030008000000003A
:1002A0000000000087030008870300088703000898
:1002B00087030008870300088703000887030008F6
:1002C00087030008870300088703000800F002F88E
:1002D00000F03CF80AA090E8000C82448344AAF1A4
:1002E0000107DA4501D100F031F8AFF2090EBAE8A2
:1002F0000F0013F0010F18BFFB1A43F0010318475A
:10030000B8340000D8340000103A24BF78C878C14F
:10031000FAD8520724BF30C830C144BF04680C600B
:10032000704700000023002400250026103A28BF53
:1003300078C1FBD8520728BF30C148BF0B60704757
:100340001FB502F0C7FD1FBD10B510BD00F058F875
:100350001146FFF7F5FF02F04BFD00F076F803B40D
:10036000FFF7F2FF03BC00F07DF80000094880476A
:1003700009480047FEE7FEE7FEE7FEE7FEE7FEE787
:10038000FEE7FEE7FEE7FEE704480549054A064B9F
:10039000704700001D2C0008CD020008B80500249D
:1003A000B80B0024B8070024B80700244FF000025F
:1003B00000B5134694469646203922BFA0E80C505B
:1003C000A0E80C50B1F12001BFF4F7AF090728BF36
:1003D000A0E80C5048BF0CC05DF804EB890028BFB2
:1003E00040F8042B08BF704748BF20F8022B11F0DB
:1003F000804F18BF00F8012B704770477047704757
:10040000754600F02BF8AE4605006946534620F0CD
:100410000700854618B020B5FFF7B6FFBDE82040BD
:100420004FF000064FF000074FF000084FF0000BB0
:1004300021F00701AC46ACE8C009ACE8C009ACE863
:10044000C009ACE8C0098D46704710B50446AFF34B
:1004500000802046BDE81040FFF781BF004870478C
:100460005405002401491820ABBEFEE72600020017
:100470007047FEE7704772B6FEE7000070B50446AD
:1004800000F022F90546601C02D0044800780444BC
:1004900000F01AF9401BA042FAD370BD00000024FE
:1004A0002DE9F84F03247A4D00234FF001094FF056
:1004B000B04B4FF00F0AE4E009FA03F6324078D06F
:1004C0000F7907F00307012F01D0022F1AD1876897
:1004D0004FEA430ED1F80CC004FA0EF827EA0807D9
:1004E0000CFA0EFC4CEA070CC0F808C0476891F8FB
:1004F00004C0B743CCF3001C0CFA03FC4CEA070C15
:10050000C0F804C00E79F643B6070BD0C6684FEAB0
:1005100043088F6804FA08FC26EA0C0607FA08F775
:100520003743C7600E7906F00306022E12D1DE08AB
:100530000F694FEA437C00EB8606B646366A4FEAFF
:10054000DC6C0AFA0CF807FA0CF726EA08063743BF
:10055000CEF820700F7906684FEA430807F00307CA
:1005600004FA08FC07FA08F726EA0C063743076086
:100570004E6816F4403F1CD0464E376847F00207DD
:10058000376036689F0706F00206009623F00306E0
:1005900006F1B046B6463F0FD6F80864DFF8F8809B
:1005A0000AFA07FC404526EA0C0603D14FF0000C7E
:1005B0003AE065E0DFF8E4C0604502D14FF0010C9D
:1005C00032E0DFF8DCC0604502D14FF0020C2BE0D6
:1005D000DFF8D0C0604502D14FF0030C24E0DFF813
:1005E000C8C0604502D14FF0040C1DE0DFF8BCC06C
:1005F000604502D14FF0050C16E0DFF8B4C060454D
:1006000002D14FF0060C0FE0DFF8A8C0604502D120
:100610004FF0070C08E0DFF8A0C0604502D14FF0B2
:10062000090C01E04FF00A0C0CFA07FC4CEA060C2E
:10063000CEF808C44F68DBF80060FF0226EA020625
:1006400000D516435F46CBF80060D1F804C0DBF854
:1006500004605FEA8C2C26EA020600D516437E6011
:100660006E684F6826EA0206BF0300D516436E6027
:100670002E684F6826EA0206FF0300D516432E6057
:100680005B1C0A6832FA03F67FF416AFBDE8F88FF8
:1006900080000058F4440258000002580004025838
:1006A00000080258000C02580010025800140258AA
:1006B00000180258001C0258002402580AB1816137
:1006C00070470904FBE7000001488068704700009C
:1006D0000000002430B590F84120202A24D190F861
:1006E0004020012A20D0012380F84030242280F8C5
:1006F0004120202300240268156825F001051560BB
:100700000268156825F480551560026815680D4368
:10071000156001680A6842F001020A6080F8413001
:1007200080F84040002030BD022030BD30B590F848
:100730004120202A22D190F84020012A1ED00123F6
:1007400080F84030242280F84120202400250268CF
:10075000136823F0010313600268136823F47063C5
:1007600043EA0121116001680A6842F001020A604F
:1007700080F8414080F84050002030BD022030BD5C
:1007800070B5040004D094F84100002510B106E0D3
:10079000012070BD204684F8405000F0FDF8242070
:1007A00084F841002068016821F001010160D4E96A
:1007B000001020F0706008612068816821F4004119
:1007C0008160E06821680128A06830D040F40440CE
:1007D0008860E0680228206841682BD021F400611D
:1007E000416020682021154A436813434360206814
:1007F000C26822F40042C26054F8106B0DCC104362
:1008000040EA0320F06054F81C3CD4E90002104395
:10081000186054F81C0D026842F001020260656421
:1008200084F84110256384F84250002070BD40F4E4
:100830000040CDE741F40061D2E7000000800002F3
:100840002DE9FF4F83B0044690F841009A46934645
:10085000DDE91087DDF84890202871D15FEA0800B3
:1008600014D09FB194F84000012869D0012084F889
:100870004000FFF729FF0122064619230090D1030B
:10088000204601F039FD00286ED103E04FF40070DE
:10089000606469E00025C4F82480212184F84110B7
:1008A000402084F8420065646785534665635A4674
:1008B00004992046CDE9009601F0D4FC10B184F8EB
:1008C000405051E0608DFF274FF08078FF284FF0B7
:1008D000007A04D927853A464346009505E0608DA5
:1008E00053462085009594F828202046049901F06D
:1008F000EBFC32464946204601F068FDA0BB606A29
:10090000216800788862606A401C6062608D401EC9
:100910006085208D401E80B22085618DD9B1D0B90F
:1009200000224B4680212046009601F0E5FCD8B914
:10093000608DFF2805D927853A464346009506E095
:1009400026E0608D53462085009594F828202046A7
:10095000049901F0B9FC608D0028CAD1324649469D
:10096000204601F007FD18B1012007B0BDE8F08F67
:1009700020682021074AC161206843681340436012
:1009800084F8411084F84250002084F84050ECE78D
:100990000220EAE700E800FE10B5B4B004461421D6
:1009A0002EA8FFF703FDB8216846FFF7FFFC1849A2
:1009B000206888422AD1002020900821CDE900102B
:1009C000684600F01FF908B1FFF755FD11480168AE
:1009D00041F00201016000680DF1B80C122100F035
:1009E00002003390C0200122032304248CE81F005E
:1009F00009482EA9FFF754FD06480830016841F464
:100A000000110160006800F40010339034B010BD94
:100A100000540040E0440258000402580248816833
:100A2000027811448160704700000024032010B553
:100A300000F0ACF800F014FF0F4A10491468136876
:100A4000C4F3032203F00F038A5CC95C02F01F02A7
:100A500001F01F01D0400A4A20FA01F11160094952
:100A600008600F2000F010F808B1012010BD00F060
:100A700051F8002010BD000018440258DE2E000876
:100A8000100000240C00002410B5102804468AB081
:100A90002CD200220146372000F058F8372000F011
:100AA00047F8174804601748016841F020010160C9
:100AB000006809A900F020000890684600F06EFE6A
:100AC0000598B0B100F0BAFE40000F4900220F4C6B
:100AD000B0FBF1F10E4840F2E7330460C0E90332A5
:100AE000491EC0E9011201F0EDF928B101200AB058
:100AF00010BD00F0A3FEE8E7054801F015FAF6E79F
:100B000004000024E844025840420F000014004052
:100B100008010024054808B5016841F002010160A0
:100B2000006800F00200009008BD0000F444025884
:100B3000002809DB410900F01F028900012001F1B2
:100B4000E0219040C1F80001704700000E4BF0B466
:100B50001B680D46C3F30223C3F10706042E00D918
:100B60000426191D072901D2002300E0DB1E012401
:100B700004FA06F19C40491E2940641E9940144025
:100B80002143F0BC02F023B90CED00E0064900F06F
:100B9000070210B54FF6FF040868044B204040EAF6
:100BA00002201843086010BD0CED00E00000FA05BB
:100BB000134970B50A68D243520705D5096801F098
:100BC0000701814213D118E00A6822F007020243AC
:100BD0000A60FFF779FD0A4D4FF47A760446083D26
:100BE00007E000BFFFF770FD001BB04201D90120F4
:100BF00070BD2868C0438004F4D4002070BD00009C
:100C00000C4802582DE9FE4F0546DFF800A450F8C5
:100C1000081B0024FD4FC943019005F1280026461A
:100C20000AF1240A009008011DD4686E50B1B0F595
:100C3000801F0CD0B0F5001F0ED0B0F5401F1ED0A5
:100C400001240FE0386840F40030386017E0019864
:100C5000022101F075FE03E00098022101F000FF7F
:100C600004000CD026462888C043C00523D4A86DB4
:100C700005281ED2DFE800F00C11161B1B006A6E5F
:100C8000DAF8001021F440111143CAF80010EAE725
:100C9000386840F40030386009E00198002101F024
:100CA0004FFE03E00098002101F0DAFE0446C4B1D3
:100CB00000E0012426462888DFF85083C04308F16D
:100CC0002C0840052FD4D5F8A400B0F5C00F28D0CB
:100CD00010DCB8B1B0F5001F19D0B0F5800F0FD1FE
:100CE0001AE0AA6DDAF8001021F007011143CAF8E2
:100CF0000010E0E7B0F5000F13D0B0F5200F10D0D2
:100D000001240FE0386840F40030386009E00198B1
:100D1000002101F015FE03E00098002101F0A0FE83
:100D2000044694B126462888C043000530D4D5F83F
:100D3000A800B0F1407F29D011DCC0B1B0F1807FB4
:100D40001AD0B0F1007F10D11BE0D5F8A420D8F85C
:100D5000001021F460011143C8F80010E3E7B0F17E
:100D6000806F13D0B0F1A06F10D001240FE038686D
:100D700040F40030386009E00198002101F0E0FD06
:100D800003E00098002101F06BFE044694B1264672
:100D90002868DFF878B2C0430BF1200B80011FD424
:100DA000E86CD8B110280FD0202812D0302815D0E8
:100DB000012414E0D5F8A820D8F8001021F0E06153
:100DC0001143C8F80010E3E7386840F40030386099
:100DD00004E00198022101F0B3FD044674B12646F7
:100DE0002888C043C0042BD4E86DB0F5005F20D044
:100DF0000DDCA0B1B0F5805F0FD115E0EA6CDBF837
:100E0000001021F030011143CBF80010E8E7B0F5F5
:100E1000405F13D0B0F5804F10D001240FE0386848
:100E200040F40030386009E00198002101F088FDAD
:100E300003E00098002101F013FE04468CB1264621
:100E40002888C043800429D4286EB0F5403F23D0C1
:100E500010DC08B3B0F5803F14D0B0F5003F0FD1DF
:100E600015E0EA6DDAF8001021F4E0411143CAF808
:100E70000010E5E7B0F5802F0ED0B0F5A02F0BD015
:100E800001240AE00198012101F05AFD03E00098D5
:100E9000012101F0E5FD044694B126462888C043AF
:100EA00040042AD4D5F8AC00B0F1405F23D010DC68
:100EB00008B3B0F1805F14D0B0F1005F0FD115E03E
:100EC0002A6EDAF8001021F4E0211143CAF800106C
:100ED000E4E7B0F1804F0ED0B0F1A04F0BD0012469
:100EE0000AE00198012101F02BFD03E000980121A7
:100EF00001F0B6FD044674B126462888C0430004BC
:100F00001FD4E86ED8B1B0F1805F0ED0B0F1005FB1
:100F100010D0012414E0D5F8AC20D8F8001021F04E
:100F2000E0411143C8F80010E7E7386840F40030AA
:100F3000386004E00198012101F002FD044674B11B
:100F400026462868C043C0011ED4A86CD0B1012831
:100F50000ED0022811D0032814D0012413E0EA6E29
:100F6000DAF8001021F040511143CAF80010E8E708
:100F7000386840F40030386004E00198022101F044
:100F8000DFFC04466CB126462868C043400255D4B5
:100F90001F48016841F480710160FFF795FB8146AD
:100FA0000EE0AA6CDBF8001021F003011143CBF82E
:100FB0000010E9E7FFF788FBA0EB090064283BD8A5
:100FC00013480068C005F5D5BCBBDFF84090B5F804
:100FD000B01009F14409D9F8000001F4407100F49F
:100FE0004070884211D0D9F80010D9F8002021F4BF
:100FF000407142F48032C9F80020D9F8002022F470
:101000008032C9F80020C9F8001003E02C440258CF
:1010100000480258D5F8B000B0F5807F19D1FFF72D
:1010200053FB029011E000BFFFF74EFB0299411AFB
:1010300041F28830814208D9032426462878DFF817
:101040001494C043C00721D03CE0D9F800008007C9
:10105000EAD5D5F8B010C1F301200328FE480DD021
:10106000016821F47C510160B5F8B020D9F8001076
:10107000C2F30B021143C9F80010DFE7F74A036817
:1010800002EA111223F47C511143ECE7A86F1828EF
:1010900016D005DCA0B1082808D0102804D10AE039
:1010A00020280DD028280BD001240AE00198012126
:1010B00001F046FC03E00098012101F0D1FC044658
:1010C00064B126462878C04380071ED4686F06287E
:1010D00019D2DFE800F0160C11161616AA6FD9F80F
:1010E000001021F038011143C9F80010EAE7019817
:1010F000012101F025FC03E00098012101F0B0FC82
:1011000004467CB100E0012426462878C04340070D
:101110001FD4D5F89000062819D2DFE800F0160C8D
:10112000111616166A6FD9F8001021F00701114345
:10113000C9F80010E9E70198012101F001FC03E082
:101140000098012101F08CFC0446A4B100E00124C8
:1011500026462878C04380062BD4D5F88C00B0F101
:10116000405F24D011DC10B3B0F1805F15D0B0F136
:10117000005F10D116E0D5F89020D8F8001021F0CB
:1011800007011143C8F80010E3E7B0F1804F0ED01B
:10119000B0F1A04F0BD001240AE00198002101F02A
:1011A000CFFB03E00098022101F05AFC044694B101
:1011B00026462878C04340062BD4D5F89800B0F5D1
:1011C000406F24D011DC10B3B0F5806F15D0B0F5AE
:1011D000006F10D116E0D5F88C20D9F8001021F05E
:1011E000E0411143C9F80010E3E7B0F5805F0ED08D
:1011F000B0F5A05F0BD001240AE00198002101F0B6
:101200009FFB03E00098022101F02AFC044694B100
:1012100026462878C04300062BD4D5F89C00B0F5AC
:10122000C04F24D011DC10B3B0F5005F15D0B0F57D
:10123000804F10D116E0D5F89820D8F8001021F48E
:10124000E0511143C8F80010E3E7B0F5004F0ED0AD
:10125000B0F5204F0BD001240AE00198002101F0E5
:101260006FFB03E00098022101F0FAFB044654B141
:1012700026462878C04300071ED4D5F88000B0F574
:10128000805F0AD00FE0D5F89C20D8F8001021F438
:1012900060411143C8F80010EBE70098022101F00B
:1012A000DFFB00B10126D5F88020D9F8001021F429
:1012B00040511143C9F800102878C043C00613D428
:1012C000D5F89400B0F5807F05D10098022101F097
:1012D000C7FB00B10126D5F89420D8F8001021F4FE
:1012E00040711143C8F800102868C043000316D4A9
:1012F000D5F8A00038B1B0F5803F09D0B0F5003F77
:101300000BD001240AE00198002101F019FB03E051
:101310000098022101F0A4FB04468CB126462868FF
:10132000C043400322D4D5F88400B0F5801F11D00B
:10133000B0F5001F13D0B0F5401F15D0012414E004
:10134000D5F8A020D8F8001021F440311143C8F896
:101350000010E4E7386840F40030386004E000989A
:10136000012101F07DFB04465CB126462868C0439C
:10137000C0031CD4286D70B1B0F5803F10D001249B
:1013800014E0D5F88420D9F8001021F4401111435D
:10139000C9F80010EAE7386840F40030386004E02B
:1013A0000198022101F0CCFA0446DCB126462868F7
:1013B000C043800005D40098022101F051FB00B128
:1013C00001262868C04380031BD4E86FB8B1B0F58C
:1013D000807F10D0B0F5007F11D0B0F5407F0ED0E7
:1013E00001240DE02A6DDBF8001021F48031114357
:1013F000CBF80010DBE7386840F4003038607CB38D
:1014000026462868C043C00207D42A6FDAF80010C5
:1014100021F000411143CAF800102868C04380023F
:1014200007D4AA6EDAF8001021F080711143CAF8CF
:1014300000102868C043400009D40748016821F41F
:10144000004101600168D5F8B420114301602868AB
:10145000C04306E05444025810440258CFFFFF0036
:101460001DE007D46A6DDBF8001021F040511143F4
:10147000CBF800102868C043000208D4D5F88820B3
:10148000D9F8001021F440011143C9F8001028795F
:101490000024C04300F00100204309D00EE0EA6FB1
:1014A000D9F8001021F440711143C9F80010A8E7E1
:1014B0000198002101F044FA00B106462879C043A2
:1014C00000F00200204305D10198012101F038FA13
:1014D00000B106462879C04300F00400204305D13E
:1014E0000198022101F02CFA00B106462879C04388
:1014F00000F00800204305D10098002101F0B0FA67
:1015000000B106462879C04300F01000204305D101
:101510000098012101F0A4FA00B106462879C043E1
:1015200000F02000044304D10098022101F098FA51
:1015300000B916B10120BDE8FE8F0020FBE70000D6
:101540002DE9F05F04000F467ED0DFF83882D8F82E
:10155000000000F00F00B8420CD2D8F8001021F0C3
:101560000F013943C8F80010D8F8000000F00F0050
:10157000B84269D12078844D40070AD5206929688E
:1015800001F07001884204D9296821F070010143FB
:10159000296020787C4E361D00070AD560693168C5
:1015A00001F07001884204D9316821F070010143D3
:1015B00031602078C0060AD5A069316801F4E06185
:1015C000884204D9316821F4E06101433160207818
:1015D000DFF8B4B180060BF1080B0CD5E169584671
:1015E000DBF8002002F07002914204D9026822F078
:1015F00070020A430260207880070AD5E0682968F3
:1016000001F00F01884204D9296821F00F0101433C
:1016100029602078C0073ED05B49A2682868183945
:1016200020F47060104328606068022818D00328F6
:1016300019D00968012819D0490700294ADADFF8CA
:1016400048A1AAF1080A00E044E0DAF8002022F0FC
:1016500007020243CAF80020FFF736F8814612E07D
:1016600009688903E9E709688901E6E7C905E4E74C
:10167000FFF72AF8A0EB090141F28830814202D934
:101680000320BDE8F09F6168DAF8000000F0380040
:10169000B0EBC10FECD1207880070AD5E06829684B
:1016A00001F00F01884204D2296821F00F010143A3
:1016B0002960D8F80010404601F00F01B9420BD95B
:1016C000016821F00F0139430160006800F00F004C
:1016D000B84201D00120D4E7207840070AD520691C
:1016E000296801F07001884204D2296821F0700154
:1016F00001432960207800070AD56069316801F04C
:101700007001884204D2316821F0700101433160D8
:101710002078C0060AD5A069316801F4E0618842EA
:1017200004D2316821F4E061014331602078800601
:101730000CD5E1695846DBF8002002F070029142B6
:1017400004D2026822F070020A43026000F088F8B6
:101750000E492A682B68C2F3032203F00F038A5C48
:10176000C95C02F01F0201F01F01D040084A20FAB4
:1017700001F111600749086007480068BDE8F05FA3
:10178000FFF782B90020005218440258DE2E0008EC
:10179000100000240C0000240400002470B5144C38
:1017A0003F220260124A24680832131D114D04F0D2
:1017B0000704446016681C1D06F47066866016688F
:1017C00006F00F06C660126802F0700202611A6825
:1017D00002F0700242611A6802F4E06282612268DB
:1017E00002F07002C261286800F00F00086070BD4E
:1017F000104402580020005230B500F031F80B4A76
:101800000B490C4B15681468C5F3032204F00F0450
:101810008A5C095D02F01F0201F01F01D040064AF8
:1018200020FA01F119601060084630BD18440258D2
:10183000DE2E0008100000240C00002400B5FFF785
:10184000DBFF05490968054AC1F30211515C01F04B
:101850001F01C84000BD00001C440258DE2E0008D5
:10186000454970B545480968434B103B11F03802B3
:1018700008D00111082A03D0102A0BD0182A0BD047
:10188000084670BD19688906FBD51968C1F3C10106
:10189000C84070BD3A4870BD3749374D18310C1DEE
:1018A00024350A68096826682D6802F0030406F0EA
:1018B0000102C1F30511C5F3CC0515FB02F200EEE0
:1018C000102AB8EE400AE9B32F4ADFED2E0AB7EE30
:1018D000001A6CB1DFED2D1A012C01D0022C43D07F
:1018E00002EE101A1068F8EE422A81EEA22A1EE0DB
:1018F0001C68A40611D51B6801EE901A1168C3F389
:10190000C103F8EE612AD84001EE900AC1F3080045
:10191000F8EE611A81EEA22A0BE001EE901ADFEDDB
:101920001C2A00BFF8EE611A106882EEA12AC0F3EB
:10193000080001EE900AF8EE611A40EE201A31EE2E
:10194000810A00E015E022EE000A1068C0F346208C
:10195000401C00EE900AF8EE600A80EE201ABCEE01
:10196000C10A10EE100A70BD01EE901ADFED092ACF
:10197000D8E7002070BD0000104402580090D0034A
:1019800040787D0100000039304402580024744A38
:101990000024744C20BCBE4B2DE9F05F04007DD0C8
:1019A000FF4F2078FE4D1837DFF8F483103DC00755
:1019B00048D0D8F80000396800F03800102815D059
:1019C000182803D101F0030002280FD06068B0F599
:1019D000803F12D010B1B0F5A02F18D0286820F4A5
:1019E00080302860286820F4802009E0286880037F
:1019F00028D560680028D2D024E0286840F48030E0
:101A00002860606888B1FEF75FFE064609E0286836
:101A100040F480202860F0E7FEF756FE801B642823
:101A20007ED828688003F7D50CE0FEF74DFE064609
:101A300005E000BFFEF748FE801B6428F0D8286848
:101A40008003F7D42078800756D5D8F80000DFF857
:101A50005093396810F03800A9F10C090ED01828FD
:101A600001D188070AD0E068A8B3296821F01901DC
:101A700001432960FEF728FE064628E02868400753
:101A800002D5E06800288AD0E168286820F01900B3
:101A900008432860FEF718FE064606E0D2E000BFC5
:101AA000FEF712FE801B0228BAD828684007F7D537
:101AB000217CD9F8002022F0FE4242EA0161C9F8F7
:101AC000001019E0FEF700FE801B0228A8D8286845
:101AD0004007F7D5ECE7FFE7286820F00100286011
:101AE000FEF7F2FD064604E0FEF7EEFD801B02283D
:101AF00096D828684007F7D42078C00646D5D8F88D
:101B00000000DFF89C92396800F03800A9F1040960
:101B1000082812D0182805D101F00300012800E0A0
:101B2000CEE00AD0E0690028286820D040F080008C
:101B30002860FEF7C9FD064615E02868C00502D5F5
:101B4000E06980287ED194F82010D9F8002022F096
:101B50007C5242EA0161C9F8001017E0FEF7B4FDBB
:101B6000801B0228A0D82868C005F7D5EBE720F035
:101B700080002860FEF7A8FD064604E0FEF7A4FDFD
:101B8000801B022890D82868C005F7D42078000769
:101B900029D583486169643000298146016811D0E4
:101BA00041F001010160FEF78FFD064605E000BF30
:101BB000FEF78AFD801B022888D8D9F8000080072C
:101BC000F6D510E021F001010160FEF77DFD06462B
:101BD00005E000BFFEF778FD801B022870D8D9F819
:101BE00000008007F6D42078800623D5A06900285D
:101BF000286810D040F480502860FEF765FD064646
:101C000005E000BFFEF760FD801B022858D8286859
:101C10008004F7D50EE020F480502860FEF754FDD4
:101C2000064604E0FEF750FD801B022848D82868CD
:101C30008004F7D42078400751D5DFF86891D9F8AF
:101C4000001000E015E141F48071C9F80010FEF7C2
:101C50003BFD064605E000BFFEF736FD801B64280D
:101C60002ED8D9F80000C005F6D54D4EA0686036D4
:101C700001280AD008B1052813D0306820F00100EF
:101C80003060306820F0040002E0306840F001006D
:101C90003060A06841F2883A98B1FEF715FD8146A0
:101CA0000AE0306840F004003060EEE7FEF70CFD1B
:101CB000A0EB0901514503D830688007F6D50EE046
:101CC00072E0FEF701FD814606E000BFFEF7FCFC76
:101CD000A0EB0901514567D830688007F6D4606AE7
:101CE00000287CD0DFF8B8A0D8F800100AF1200A4C
:101CF0004FF6F87B0AF10408C1F3C2010329AAF1E7
:101D000004096DD00228286820F08070286003D074
:101D1000FEF7DAFC044681E0FEF7D6FC064604E056
:101D2000FEF7D2FC801B022875D828688001F7D402
:101D3000E26A40F2F331386854F8283F884340EAB9
:101D4000021018433860217B4FF4FE0C22894FF0BB
:101D5000FE47208A4902267D521E401EA1F50071D1
:101D600089B2C2F308021143761E0CEA0040014317
:101D7000484607EA06621143CAF80010D9F8001075
:101D800021F00101C9F80010D8F80030266A23EAD2
:101D90000B0343EAC601C8F80010D9F8001004E0AC
:101DA000104402580048025835E0A26921F00C01A5
:101DB0001143C9F800100168E26921F002011143E2
:101DC0000160016841F480310160016841F4003133
:101DD0000160016841F480210160016801E06CE06C
:101DE00020E041F001010160286840F08070286027
:101DF000FEF76AFC044604E0FEF766FC001B0228BE
:101E000009D828688001F7D557E000BFFEF75CFCD1
:101E1000001B022802D90320BDE8F09F286880013A
:101E2000F4D44AE039680128DAF8000021D0A26A27
:101E300001F0030393421CD1E26AC1F305118A4207
:101E400017D1216BC0F30802491E8A4211D1616B80
:101E5000C0F34622491E91420BD1A16BC0F306424A
:101E6000491E914205D1E16BC0F30660491E8142D3
:101E700001D00120D0E7A16C4646D8F80000C0F39D
:101E8000CC00814219D0D9F800004D4620F0010065
:101E9000C9F80000FEF718FC4FEA0007FEF714FC33
:101EA000B842FBD0A26C306820EA0B0040EAC200C6
:101EB0003060286840F0010028600020ACE77047DF
:101EC0007047704710B5040003D094F83D0010B17E
:101ED00007E0012010BD002084F83C00204600F0FF
:101EE00022F8022084F83D002068211D00F0FCFE4D
:101EF000012084F8480084F83E0084F83F0084F80C
:101F0000400084F8410084F8420084F8430084F8DB
:101F1000440084F8450084F8460084F8470084F8BB
:101F20003D00002010BD704790F83D10012901D000
:101F3000012070471A4A022180F83D100168CB68E1
:101F400043F00103CB60006890421AD0B0F1804F9B
:101F500017D01449884214D01349884211D013492C
:101F600088420ED0124988420BD01249884208D0CC
:101F70001149884205D01149884202D0104988424F
:101F800007D181680F4A1140062906D0B1F5803F7C
:101F900003D0016841F0010101600020704700009A
:101FA000000001400004004000080040000C004018
:101FB00000040140001800400040014000E00040E3
:101FC00000E400400700010070472DE9F04104469D
:101FD00000680027C6680569A90713D5B10711D5A0
:101FE000FA1E02610121217720688069800720465E
:101FF00002D0FFF7E9FF04E000F08BF8204600F084
:1020000089F82777680716D5700714D5226802204B
:102010006FF00401116120772068806910F4407F1F
:10202000204602D0FFF7D0FF04E000F072F820460F
:1020300000F070F82777280715D5300713D52268E8
:1020400004206FF00801116120772068C0698007C3
:10205000204602D0FFF7B8FF04E000F05AF820460F
:1020600000F058F82777E80616D5F00614D5226850
:1020700008206FF01001116120772068C06910F40A
:10208000407F204602D0FFF79FFF04E000F041F8B8
:10209000204600F03FF82777E80708D0F00706D081
:1020A00021686FF001000861204600F035F828062D
:1020B00001D4A80408D5300606D521686FF4025073
:1020C00008612046FFF7FCFEE80508D5300606D576
:1020D00021686FF4807008612046FFF7F0FE680603
:1020E00008D5700606D521686FF0400008612046CB
:1020F00000F01CF8A8060AD5B00608D521686FF0D4
:10210000200008612046BDE8F041FFF7DABEBDE8D7
:10211000F08170477047000000680349884201D190
:10212000FEF77CBC70470000001400407047FEE7DB
:1021300001688A69D243920701D400228A6200684A
:102140008169C943C90703D0816941F001018161F7
:10215000704700002DE9F0470446006800268946D4
:1021600017464FF0200835468169C90641D5102130
:10217000C1612FE0B9F1FF3F2CD0FEF7A5FAC11BDA
:10218000494502D8B9F1000F24D12068426894F87B
:102190004210836902F48042DB431B0415D4B2F57C
:1021A000804F12D0202910D0416841F48041416015
:1021B000FEF78AFA074608E0FEF786FAC01B1928E0
:1021C00003D9012645F0200504E020688069C0435A
:1021D0008006F1D420688069C043800602D5002EB5
:1021E000C8D003E016B92168C1F81C80012645F06B
:1021F000040521688869C20505D54FF48072CA615B
:1022000045F00105012641050AD5216880054FF4F6
:10221000806245F00805CA614FF0010602D40AE069
:10222000800507D5206801264FF4007145F00205AE
:10223000C16100E08EB12046FFF77AFF20680021DF
:10224000074F43683B404360606C2843606484F8F8
:10225000418084F8421084F840103046BDE8F08791
:1022600000E800FE2DE9F8430446164817461E46CE
:10227000DAB20090C3022046DDE9089800F024F8A5
:1022800042464946204600F0A1F8B8B9012EFDB2F9
:1022900008D02068390A816242464946204600F04B
:1022A00095F858B920688562002280214B46204667
:1022B000CDF8008000F020F8002800D00120BDE813
:1022C000F88300000020008070B50068C1F30901A8
:1022D00041EA0241074D049C19434FF4806642686D
:1022E000214306EA54532B439A4321F000410A4309
:1022F000426070BDFF63FF032DE9F0411D461746A4
:102300000E460446DDF8188028E04246294620465D
:10231000FFF720FF10B10120BDE8F081681C1DD03F
:10232000FEF7D2F9A0EB0800A84200D8B5B92068A2
:10233000806936EA00000FD00020B8420ED1626CEE
:10234000002084F84000202142F02002626484F8DA
:10235000411084F84200DEE70120EEE72068806942
:1023600036EA000004D00020B842CED00020D3E7E7
:102370000120F9E770B516460D4604461FE03246C7
:1023800029462046FFF7E6FE08B1012070BDFEF7A2
:102390009BF9801BA84200D88DB920688069C04392
:1023A00080060CD5626C002084F84000202142F0A9
:1023B0002002626484F8411084F84200E5E7206856
:1023C0008069C0438006DAD4002070BD70B516461F
:1023D0000D46044621E0324629462046FFF7BAFE64
:1023E00008B1012070BD681C17D0FEF76DF9801B85
:1023F000A84200D88DB920688069C04380070CD5F9
:10240000626C002084F84000202142F020026264C7
:1024100084F8411084F84200E3E720688069C043F3
:102420008007D8D4002070BDF0B587B0142168466D
:10243000FDF7BCFF2548016841F004010160016817
:1024400001F004010591016841F08001016001681B
:1024500001F080010591016841F0400101600168CF
:1024600001F040010591016841F00101016001683E
:1024700001F001010591016841F00201016000686D
:102480000122134F802100F0020005903846FEF72C
:1024900015F9104E002220213046FEF70FF90021D9
:1024A00001240225039580200090CDE90141694671
:1024B0003846FDF7F5FF20206946CDE90004CDE957
:1024C00002453046FDF7ECFF07B0F0BDE04402588E
:1024D00000180258000402581348002110B5114C8E
:1024E0000123124A0460C0E90121C0E903314161BE
:1024F0008161C1610162FEF743F908B1FDF7BBFFDD
:1025000009480021FEF7E6F808B1FDF7B4FF0648D8
:102510000021FEF70BF9002803D0BDE81040FDF7BD
:10252000AABF10BD00540040B4000024724E4060A9
:10253000FEE7FEE7064800224FF480631146491C7F
:1025400089B2994200F8012BF9D300F06DB8000070
:1025500054010024054800224FF480631146491CB1
:1025600089B2994200F8012BF9D370475401002435
:102570002DE9F043DFF83C900025DDE9077C15E00C
:1025800009EBC116044606440CE000BF17F80580AD
:10259000BCF1000F01D06FEA08086D1C641C06F83E
:1025A000018BE4B29442F1D3491CC9B29942E7D3FA
:1025B000BDE8F0835401002470B5114C01222021A4
:1025C0002046FEF77BF86420FDF758FF00222046E6
:1025D0002021FEF773F86420FDF750FF012220460A
:1025E0002021FEF76BF86420FDF748FF054D00241D
:1025F000285D00F091F9641CE4B21F2CF8D370BD83
:1026000000040258940000240648FF2200214FF4E1
:102610008063491C89B2994200F8012BF9D300F07C
:1026200003B80000540100240EB54FF4807207482F
:10263000012391008DE80700054840227821FEF72C
:10264000FFF8BDE80E40FFF785BF000054010024ED
:10265000B400002430B5114C114D04EBC11105EB51
:102660008214084400220146A55C03B1ED43521CCC
:10267000D2B2102A00F8015BF6D3002011F18001DC
:1026800004EB000292F8202003B1D243401CC0B2F8
:10269000102801F8012BF3D330BD000054010024B1
:1026A000F636000870B51C4D203A102B05EBC11111
:1026B000049C01444FF00000D2B20ED0174B02EB45
:1026C000420203EB4202135C04B1DB43401CC0B284
:1026D000062801F8013BF6D370BD114D0B4600BF33
:1026E00000EB0216AE5D04B1F643401CC0B20828F0
:1026F00003F8016BF4D3002011F1800100EB021309
:102700002B441B7A04B1DB43401CC0B2082801F8FB
:10271000013BF3D370BD000054010024EE2E0008ED
:10272000163100082DE9FF4F81B01D460026934663
:1027300080463446DDE90EA94FEA5A0727E0281BF8
:10274000401EC1B20A2000F0BDFBBBFBF0F00A2125
:10275000B0FBF1F201FB120026B9691E8C4201DACE
:1027600048B10126534607FB04813030CDF8009074
:10277000C2B2C8B206E007FB048020225346C0B2B2
:10278000CDF800900299FFF78DFF641CE4B2AC42D3
:10279000D5D305B0BDE8F08F2DE9F84300251E46DE
:1027A00017468946DDF82080044614E03346494642
:1027B0002046CDF80080FFF775FF0C2E10D00834AE
:1027C000E4B27A2C01D90C2E0CD0782C01D9102E21
:1027D00008D06D1CEDB27A5D002AE7D1BDE8F88320
:1027E000A41DEDE709F10100002400F0FF09F0E766
:1027F0002DE9FF4FB5EEC00A9A4614462DED020BA7
:1028000082B08046F1EE10FA4FF0000B129F05D215
:10281000541C4FF0010BB1EE400AE4B21198FDEEEA
:10282000C00A4608002510EE909A27E0601B401E63
:10283000C1B20A2000F046FBB9FBF0F30A2001996F
:10284000B3FBF0F200FB123029B9611E8D4202DAAF
:1028500048B10121019106FB05813030119BC2B2C4
:102860000097C8B205E006FB0580119B2022C0B28C
:1028700000970599FFF716FF6D1CEDB2A542D5D361
:1028800006FB048000972E22119BC0B20599FFF72A
:1028900009FF0A20514600F015FB01EE109A00EEE8
:1028A000900A0025B8EEC11AF8EE600A30EE410A2F
:1028B00020EE800ABDEEC00A10EE109A1DE000BFA7
:1028C000AAEB0500401EC1B20A2000F0FBFAB9FBDA
:1028D000F0F10A200097119BB1FBF0F200FB1211FE
:1028E0002A1908F1050006FB02003031C0B2CAB255
:1028F0000599FFF7D7FE6D1CEDB25545E0D3BBF14E
:10290000000F06D000972D22119B40460599FFF736
:10291000C9FE08B0BDE8F08F01B584B001214FF4C5
:1029200080720B4604A88DE8070003480022782136
:10293000FDF786FF05B000BDB4000024704700001D
:102940002DE9F047454D044689464FF0000A2868B6
:10295000C04380070AD0414E283E306820F0806096
:102960003060FDF7B1FE0746B04608E00120BDE843
:10297000F08700BFFDF7A8FEC01B022867D8D8F873
:1029800000000001F6D4206829684FF4FE0721F406
:102990007C313E0241EA00302860207AA389B4F8F5
:1029A00004C040022D4D2D495B1E227CACF1010C70
:1029B0001035091DA0F5007080B2521ECCF3080C32
:1029C00007EA034340EA0C00184306EA0262104398
:1029D00028600868626920F0C000104308600A6837
:1029E000A06922F0200202430A60281D0A6822F032
:1029F00010020A6002684FF6F873E4699A4342EAEB
:102A0000C40202600868B9F1000F40F010020A60C9
:102A100011D00868B9F1010F11D040F4001008601E
:102A2000D8F80000444640F08060C8F80000FDF788
:102A30004BFE05460DE0086840F40020EFE740F447
:102A40008010ECE7FDF740FE401B022801D903206F
:102A50008DE720680001F5D5504688E728440258E4
:102A60002DE9F047454D044689464FF0000A286895
:102A7000C04380070AD0414E283E306820F0805085
:102A80003060FDF721FE0746B04608E00120BDE8B2
:102A9000F08700BFFDF718FEC01B022867D8D8F8E2
:102AA00000008000F6D4208829684FF4FE0721F04A
:102AB0007C713E0241EA00502860207AA389B4F874
:102AC00004C040022D4D2D495B1E227CACF1010C4F
:102AD0001835091DA0F5007080B2521ECCF3080C09
:102AE00007EA034340EA0C00184306EA0262104377
:102AF00028600868626920F44060104308600A6832
:102B0000A06922F4007202430A60281D0A6822F4B8
:102B100080720A6002684FF6F873E4699A4342EAE9
:102B2000C40202600868B9F1000F40F480720A60C4
:102B300011D00868B9F1010F11D040F08070086021
:102B4000D8F80000444640F08050C8F80000FDF777
:102B5000BBFD05460DE0086840F48000EFE740F457
:102B60000000ECE7FDF7B0FD401B022801D903206F
:102B70008DE720688000F5D5504688E72844025844
:102B800070477047F0B59DB04C216846FDF70EFCCC
:102B9000202113A8FDF70AFC0220FEF709F81E48C1
:102BA000016821F4404101600168002401F44041C2
:102BB0001B9101688904FCD5402502200090012169
:102BC0000C26CDE90315CDE909042223CDE90D102A
:102BD0003702CDE90F0604226846CDE90B23CDE983
:102BE0001147FEF7D9FE08B172B6FEE708221A9522
:102BF000CDE91625D30113AA3F200321CDE91853AF
:102C000082E8130013A8FEF79BFC002801D072B6DF
:102C1000FEE71DB0F0BD0000184802582748F0B587
:102C2000274A016841F470010160106800F00F004C
:102C3000072804D2106820F00F00C01D1060214941
:102C40000020204C10340B681F4D43F001030B6033
:102C500020600B682B400B60136803F00F03072BF9
:102C600004D9136823F00F03DB1D1360154C174ABA
:102C70001834174B261D371D2060124C154D283473
:102C80003060261D3860371D23603B1D35601C1DDC
:102C90003A60251D2E1D1860331D226028603260A9
:102CA00018600A6843F2D204064B0B4D22F48022CE
:102CB00060330A6018602C60F0BD000088ED00E011
:102CC00000200052004402587FEDF6EA8002010124
:102CD000000202020000FF01004000520148FFF71D
:102CE00074B90000080100242DE9F0472D4B4FF086
:102CF000804A2D4D026898422C4E2D4F2D4C09D004
:102D0000504507D0A84205D0B04203D0B84201D008
:102D1000A04205D1D1F804C022F070024CEA0202B0
:102D2000DFF894C0DFF894809842DFF8949015D0D3
:102D3000504513D0A84211D0B0420FD0B8420DD0A8
:102D4000A0420BD0604509D0404507D0484505D08A
:102D50001C4DA84202D01C4DA84203D1CD6822F4DC
:102D600040722A434D6922F080022A430260984251
:102D70008A68C2620A68826207D0A04205D06045B4
:102D800003D0404501D0484501D1096901630121C3
:102D900041610169C90703D0016921F001010161A5
:102DA000BDE8F0870000014000040040000800403A
:102DB000000C00400004014000400140004401407C
:102DC0000048014000E0004000E40040FEE7090741
:102DD00000284FEA116104DB00F1E02080F80014C4
:102DE000704700F00F0000F1E02080F8141D7047DC
:102DF0001CB5FDF71BFEFFF7C5FEFFF715FBFFF740
:102E00006BFBFFF7D9FBFFF795FBFFF7FDFB4FF4DB
:102E1000FA763046FDF732FB0120009000211023A6
:102E200008466322FFF73EFC002440F2D242102500
:102E3000204604230221CDE90054FFF773FC102340
:102E40000094042100201BA2FFF7A6FC042301220A
:102E5000062100209FED190ACDE90054FFF7C8FCB8
:102E6000FFF7E2FB3046FDF709FB00231A4619463F
:102E70001846FFF7EFFB0023012218460221FFF757
:102E8000E9FB0023022218460421FFF7E3FBFFF7CA
:102E9000CBFB3046FDF7F2FAFFF74CFB0848062360
:102EA000CDE90004202202210020FFF761FBFFF79B
:102EB000BBFBFEE7616263647300000019049E3F80
:102EC000140000240246012000E050434B1ED9B2FA
:102ED000FBD270474FF04070E1EE100A70470000DF
:102EE00000000102030401020304060708090000B0
:102EF000000000000000002F000000000700070095
:102F000000147F147F1400242A7F2A1200626408B0
:102F1000132300364955225000000503000000002D
:102F20001C224100000041221C000014083E08142D
:102F30000008083E0808000000A06000000808081B
:102F40000808000060600000002010080402003E35
:102F50005149453E0000427F4000004261514946D0
:102F6000002141454B31001814127F1000274545C0
:102F70004539003C4A4949300001710905030036D2
:102F80004949493600064949291E000036360000E5
:102F900000005636000000081422410000141414EA
:102FA00014140000412214080002015109060032E5
:102FB0004959513E007C1211127C007F4949493623
:102FC000003E41414122007F4141221C007F49498E
:102FD0004941007F09090901003E4149497A007FC2
:102FE0000808087F0000417F4100002040413F0168
:102FF000007F08142241007F40404040007F020CC7
:10300000027F007F0408107F003E4141413E007F67
:1030100009090906003E4151215E007F0919294630
:103020000046494949310001017F0101003F40400C
:10303000403F001F2040201F003F4038403F0063BA
:1030400014081463000708700807006151494543DC
:1030500000007F41410000552A552A55000041419A
:103060007F00000402010204004040404040000094
:1030700001020400002054545478007F484444382E
:1030800000384444442000384444487F00385454B5
:10309000541800087E0901020018A4A4A47C007F33
:1030A000080404780000447D4000004080847D00D6
:1030B000007F102844000000417F4000007C04187D
:1030C0000478007C0804047800384444443800FC48
:1030D000242424180018242418FC007C0804040864
:1030E00000485454542000043F444020003C4040D9
:1030F000207C001C2040201C003C4030403C004410
:1031000028102844001CA0A0A07C004464544C4417
:103110001414141414140000000000000000000037
:10312000000000000000000000F8000000000000A7
:1031300000333000000000100C06100C06000000E8
:1031400000000000000040C07840C0784000043F0C
:1031500004043F040400007088FC083000000018DC
:1031600020FF211E0000F008F000E0180000002100
:103170001C031E211E0000F00888700000001E21A4
:1031800023241927211010160E0000000000000053
:10319000000000000000000000E018040200000031
:1031A00000071820400000020418E0000000004062
:1031B000201807000000404080F0804040000202DC
:1031C000010F01020200000000F0000000000101F8
:1031D000011F01010100000000000000000080B09C
:1031E000700000000000000000000000000000016E
:1031F0000101010101010000000000000000003099
:103200003000000000000000000080601804006032
:1032100018060100000000E010080810E000000F90
:10322000102020100F00001010F8000000000020F7
:10323000203F20200000007008080888700000303F
:1032400028242221300000300888884830000018E7
:10325000202020110E000000C02010F80000000700
:103260000424243F240000F8088888080800001976
:10327000212020110E0000E0108888180000000FA7
:10328000112020110E0000380808C838080000007E
:10329000003F000000000070880808887000001CD3
:1032A000222121221C0000E010080810E00000008C
:1032B000312222110F00000000C0C00000000000F9
:1032C000003030000000000000800000000000001E
:1032D0008060000000000000804020100800000115
:1032E00002040810200040404040404040000404D8
:1032F00004040404040000081020408000000020A2
:10330000100804020100007048080808F0000000DE
:10331000003036010000C030C828E810E00007186F
:10332000272423140B000000C038E0000000203CDC
:1033300023020227382008F8888888700000203F80
:10334000202020110E00C030080808083800071897
:1033500020202010080008F808080810E000203F8E
:10336000202020100F0008F88888E8081000203F6F
:1033700020202320180008F88888E8081000203F43
:10338000200003000000C0300808083800000718BB
:103390002020221E020008F808000008F808203F3C
:1033A000210101213F20000808F808080000002042
:1033B000203F2020000000000808F8080800C08016
:1033C00080807F00000008F888C028180800203F8F
:1033D00020012638200008F8080000000000203FE7
:1033E00020202020300008F8F800F8F80800203FDE
:1033F000003F003F200008F830C00008F808203FD8
:10340000200007183F00E01008080810E0000F1027
:10341000202020100F0008F808080808F000203FBE
:10342000210101010000E01008080810E0000F1859
:10343000242438504F0008F8888888887000203F7E
:103440002000030C3020007088080808380000387D
:10345000202121221C00180808F808081800000084
:10346000203F2000000008F808000008F808001FAE
:10347000202020201F000878880000C8380800009D
:1034800007380E010000F80800F80008F800033CB7
:103490000700073C0300081868808068180820307F
:1034A0002C03032C30200838C800C838080000005E
:1034B000203F2000000010080808C8380800203805
:1034C000262120201800000000FE02020200000059
:1034D000007F40404000000C30C0000000000000B1
:1034E00000010638C00000020202FE000000004099
:1034F00040407F00000000000402020204000000BF
:1035000000000000000000000000000000008080BB
:1035100080808080808000020204000000000000A3
:103520000000000000000000808080800000001982
:10353000242222223F2008F8008080000000003F63
:10354000112020110E000000008080800000000E7D
:10355000112020201100000000808088F800000E5B
:10356000112020103F200000808080800000001F7C
:10357000222222221300008080F0888888180020F0
:10358000203F202000000000808080808000006BB1
:1035900094949493600008F8008080800000203F9D
:1035A000210000203F2000809898000000000020AB
:1035B000203F20200000000000809898000000C0FC
:1035C0008080807F000008F8000080808000203F1D
:1035D00024022D302000000808F800000000002020
:1035E000203F202000008080808080808000203F5D
:1035F00020003F20003F8080008080800000203F2E
:10360000210000203F200000808080800000001FFB
:10361000202020201F00808000808000000080FF8C
:10362000A12020110E000000008080808000000E8C
:10363000112020A0FF8080808000808080002020DA
:103640003F21200001000000808080808000003346
:10365000242424241900008080E0808000000000E1
:10366000001F202000008080000000808000001FDC
:10367000202020103F20808080000080808000017A
:103680000E300806010080800080008080800F30AE
:103690000C030C300F000080800080808000002030
:1036A000312E0E312000808080000080808080815B
:1036B0008E701806010000808080808080000021CC
:1036C000302C2221300000000000807C020200002B
:1036D0000000003F40400002027C800000000040EB
:1036E000403F0000000000000000FF00000000005C
:1036F0000000FF00000040221408F40200F808084F
:10370000FF0808F8000000000000000000000000B2
:10371000000000000000084482413F002063212196
:103720003F2129336000000000000000000000007D
:103730000000000000002010E824272424E42434A2
:103740002C20E0000000000000000000000000004D
:1037500000000000000080601F090909097F0909B5
:1037600049897F0000000000000000000000000008
:1037700000000000000000007C545556547C545654
:1037800055547C0000000000000000000000000014
:10379000000000000000010101FD4545454545458B
:1037A00045FD0101010000000000000000000000D4
:1037B0000000000000000000D837000800000024CE
:1037C000B4000000080300088C380008B40000248E
:1037D000040B00002403000801000000100000009A
:1037E000000000000090D0030090D0030000000013
:1037F000000000000018F8F8F8F0C0800000000099
:10380000000000000000000000000000001CFCFCA4
:10381000FCF0E0E0E0E0E0E3EFFFFFFFFFFEFCF0A4
:10382000E0E0E0E0E0E0E0E0E0C08000003C3F3FBE
:103830001F0F0703030307C7F7FFFFFFFF7F1F0FDC
:103840000707070707070707030301000000000039
:1038500000000000001C1F1F0F07030100000000F4
:10386000000000000000000000000000AED580A8AD
:103870003FD300408D142000A1C8DA1281EFD9F1A6
:0C388000DB30A4A6AF21007F220007006F
:04000005080002CD20
:00000001FF
