:020000040800F2
:10000000A01402246D030008372900081B240008EF
:100010003529000873040008CD2E000800000000F8
:100020000000000000000000000000007F2C00081D
:10003000750400080000000039290008812C000820
:100040008703000887030008870300088703000868
:100050008703000887030008870300088703000858
:100060008703000887030008870300088703000848
:100070008703000887030008870300088703000838
:100080008703000887030008870300088703000828
:100090008703000887030008870300088703000818
:1000A0008703000887030008870300088703000808
:1000B00087030008870300088703000887030008F8
:1000C00087030008870300088703000887030008E8
:1000D00087030008870300088703000887030008D8
:1000E000870300088703000800000000870300085A
:1000F00087030008870300088703000887030008B8
:1001000087030008870300088703000887030008A7
:10011000870300088703000887030008DD2D000817
:100120008703000887030008870300088703000887
:100130008703000887030008870300088703000877
:1001400000000000000000000000000000000000AF
:100150008703000887030008870300088703000857
:100160008703000887030008870300088703000847
:1001700087030008870300088703000800000000C9
:100180008703000887030008870300088703000827
:100190008703000887030008870300088703000817
:1001A0008703000887030008870300080000000099
:1001B00087030008870300088703000887030008F7
:1001C000870300088703000800000000000000000B
:1001D000000000000000000087030008000000008D
:1001E000000000000000000000000000000000000F
:1001F00000000000000000008703000887030008DB
:100200008703000887030008000000008703000838
:100210008703000887030008870300088703000896
:1002200087030008000000008703000800000000AA
:100230008703000887030008000000008703000808
:100240008703000887030008870300088703000866
:100250008703000887030008870300088703000856
:100260008703000887030008870300088703000846
:1002700087030008870300088703000800000000C8
:100280008703000887030008870300088703000826
:10029000000000008703000887030008000000003A
:1002A0000000000087030008870300088703000898
:1002B00087030008870300088703000887030008F6
:1002C00087030008870300088703000800F002F88E
:1002D00000F03CF80AA090E8000C82448344AAF1A4
:1002E0000107DA4501D100F031F8AFF2090EBAE8A2
:1002F0000F0013F0010F18BFFB1A43F0010318475A
:10030000702C0000902C0000103A24BF78C878C1EF
:10031000FAD8520724BF30C830C144BF04680C600B
:10032000704700000023002400250026103A28BF53
:1003300078C1FBD8520728BF30C148BF0B60704757
:100340001FB502F008FE1FBD10B510BD00F058F833
:100350001146FFF7F5FF02F0CBFD00F076F803B48D
:10036000FFF7F2FF03BC00F07DF80000094880476A
:1003700009480047FEE7FEE7FEE7FEE7FEE7FEE787
:10038000FEE7FEE7FEE7FEE704480549054A064B9F
:10039000704700001D2D0008CD020008A00E0224A9
:1003A000A0140224A0100224A01002244FF0000286
:1003B00000B5134694469646203922BFA0E80C505B
:1003C000A0E80C50B1F12001BFF4F7AF090728BF36
:1003D000A0E80C5048BF0CC05DF804EB890028BFB2
:1003E00040F8042B08BF704748BF20F8022B11F0DB
:1003F000804F18BF00F8012B704770477047704757
:10040000754600F02BF8AE4605006946534620F0CD
:100410000700854618B020B5FFF7B6FFBDE82040BD
:100420004FF000064FF000074FF000084FF0000BB0
:1004300021F00701AC46ACE8C009ACE8C009ACE863
:10044000C009ACE8C0098D46704710B50446AFF34B
:1004500000802046BDE81040FFF781BF004870478C
:100460003C0E022401491820ABBEFEE72600020024
:100470007047FEE7704772B6FEE7000070B50446AD
:1004800000F022F90546601C02D0044800780444BC
:1004900000F01AF9401BA042FAD370BD00000024FE
:1004A0002DE9F84F03247A4D00234FF001094FF056
:1004B000B04B4FF00F0AE4E009FA03F6324078D06F
:1004C0000F7907F00307012F01D0022F1AD1876897
:1004D0004FEA430ED1F80CC004FA0EF827EA0807D9
:1004E0000CFA0EFC4CEA070CC0F808C0476891F8FB
:1004F00004C0B743CCF3001C0CFA03FC4CEA070C15
:10050000C0F804C00E79F643B6070BD0C6684FEAB0
:1005100043088F6804FA08FC26EA0C0607FA08F775
:100520003743C7600E7906F00306022E12D1DE08AB
:100530000F694FEA437C00EB8606B646366A4FEAFF
:10054000DC6C0AFA0CF807FA0CF726EA08063743BF
:10055000CEF820700F7906684FEA430807F00307CA
:1005600004FA08FC07FA08F726EA0C063743076086
:100570004E6816F4403F1CD0464E376847F00207DD
:10058000376036689F0706F00206009623F00306E0
:1005900006F1B046B6463F0FD6F80864DFF8F8809B
:1005A0000AFA07FC404526EA0C0603D14FF0000C7E
:1005B0003AE065E0DFF8E4C0604502D14FF0010C9D
:1005C00032E0DFF8DCC0604502D14FF0020C2BE0D6
:1005D000DFF8D0C0604502D14FF0030C24E0DFF813
:1005E000C8C0604502D14FF0040C1DE0DFF8BCC06C
:1005F000604502D14FF0050C16E0DFF8B4C060454D
:1006000002D14FF0060C0FE0DFF8A8C0604502D120
:100610004FF0070C08E0DFF8A0C0604502D14FF0B2
:10062000090C01E04FF00A0C0CFA07FC4CEA060C2E
:10063000CEF808C44F68DBF80060FF0226EA020625
:1006400000D516435F46CBF80060D1F804C0DBF854
:1006500004605FEA8C2C26EA020600D516437E6011
:100660006E684F6826EA0206BF0300D516436E6027
:100670002E684F6826EA0206FF0300D516432E6057
:100680005B1C0A6832FA03F67FF416AFBDE8F88FF8
:1006900080000058F4440258000002580004025838
:1006A00000080258000C02580010025800140258AA
:1006B00000180258001C0258002402580AB1816137
:1006C00070470904FBE7000001488068704700009C
:1006D0000000002430B590F84120202A24D190F861
:1006E0004020012A20D0012380F84030242280F8C5
:1006F0004120202300240268156825F001051560BB
:100700000268156825F480551560026815680D4368
:10071000156001680A6842F001020A6080F8413001
:1007200080F84040002030BD022030BD30B590F848
:100730004120202A22D190F84020012A1ED00123F6
:1007400080F84030242280F84120202400250268CF
:10075000136823F0010313600268136823F47063C5
:1007600043EA0121116001680A6842F001020A604F
:1007700080F8414080F84050002030BD022030BD5C
:1007800070B5040004D094F84100002510B106E0D3
:10079000012070BD204684F8405000F051F824201C
:1007A00084F841002068016821F001010160D4E96A
:1007B000001020F0706008612068816821F4004119
:1007C0008160E06821680128A06830D040F40440CE
:1007D0008860E0680228206841682BD021F400611D
:1007E000416020682021154A436813434360206814
:1007F000C26822F40042C26054F8106B0DCC104362
:1008000040EA0320F06054F81C3CD4E90002104395
:10081000186054F81C0D026842F001020260656421
:1008200084F84110256384F84250002070BD40F4E4
:100830000040CDE741F40061D2E7000000800002F3
:1008400010B5B4B0044614212EA8FFF7AFFDB821AF
:100850006846FFF7ABFD1849206888422AD100207E
:1008600020900821CDE90010684600F01FF908B17A
:10087000FFF701FE1148016841F0020101600068C4
:100880000DF1B80C122100F002003390C0200122BB
:10089000032304248CE81F0009482EA9FFF700FE5B
:1008A00006480830016841F400110160006800F456
:1008B0000010339034B010BD00540040E0440258A2
:1008C0000004025802488168027811448160704730
:1008D00000000024032010B500F0ACF800F014FF75
:1008E0000F4A104914681368C4F3032203F00F037E
:1008F0008A5CC95C02F01F0201F01F01D0400A4A65
:1009000020FA01F11160094908600F2000F010F889
:1009100008B1012010BD00F051F8002010BD00000A
:1009200018440258602F0008100000240C00002416
:1009300010B5102804468AB02CD200220146372078
:1009400000F058F8372000F047F8174804601748BF
:10095000016841F020010160006809A900F0200051
:100960000890684600F06EFE0598B0B100F0BAFE3F
:1009700040000F4900220F4CB0FBF1F10E4840F24D
:10098000E7330460C0E90332491EC0E9011201F0F7
:100990000FFC28B101200AB010BD00F0A3FEE8E76B
:1009A000054801F037FCF6E704000024E84402584B
:1009B00040420F0000140040F0000024054808B534
:1009C000016841F002010160006800F0020000903F
:1009D00008BD0000F4440258002809DB410900F07A
:1009E0001F028900012001F1E0219040C1F80001BF
:1009F000704700000E4BF0B41B680D46C3F3022392
:100A0000C3F10706042E00D90426191D072901D2B7
:100A1000002300E0DB1E012404FA06F19C40491E7D
:100A20002940641E994014402143F0BC02F04FBAA3
:100A30000CED00E0064900F0070210B54FF6FF0488
:100A40000868044B204040EA02201843086010BDAB
:100A50000CED00E00000FA05134970B50A68D243B6
:100A6000520705D5096801F00701814213D118E04A
:100A70000A6822F0070202430A60FFF725FE0A4DCA
:100A80004FF47A760446083D07E000BFFFF71CFEEE
:100A9000001BB04201D9012070BD2868C04380040A
:100AA000F4D4002070BD00000C4802582DE9FE4F20
:100AB0000546DFF800A450F8081B0024FD4FC94389
:100AC000019005F1280026460AF1240A0090080149
:100AD0001DD4686E50B1B0F5801F0CD0B0F5001F6A
:100AE0000ED0B0F5401F1ED001240FE0386840F44E
:100AF0000030386017E00198022101F01FFF03E089
:100B00000098022101F0AAFF04000CD02646288894
:100B1000C043C00523D4A86D05281ED2DFE800F02D
:100B20000C11161B1B006A6EDAF8001021F440113C
:100B30001143CAF80010EAE7386840F40030386022
:100B400009E00198002101F0F9FE03E0009800217E
:100B500001F084FF0446C4B100E001242646288841
:100B6000DFF85083C04308F12C0840052FD4D5F896
:100B7000A400B0F5C00F28D010DCB8B1B0F5001F4C
:100B800019D0B0F5800F0FD11AE0AA6DDAF8001075
:100B900021F007011143CAF80010E0E7B0F5000F9B
:100BA00013D0B0F5200F10D001240FE0386840F4C6
:100BB0000030386009E00198002101F0BFFE03E039
:100BC0000098002101F04AFF044694B12646288887
:100BD000C043000530D4D5F8A800B0F1407F29D03B
:100BE00011DCC0B1B0F1807F1AD0B0F1007F10D11C
:100BF0001BE0D5F8A420D8F8001021F460011143BF
:100C0000C8F80010E3E7B0F1806F13D0B0F1A06F27
:100C100010D001240FE0386840F40030386009E05B
:100C20000198002101F08AFE03E00098002101F004
:100C300015FF044694B126462868DFF878B2C04311
:100C40000BF1200B80011FD4E86CD8B110280FD015
:100C5000202812D0302815D0012414E0D5F8A8207F
:100C6000D8F8001021F0E0611143C8F80010E3E764
:100C7000386840F40030386004E00198022101F047
:100C80005DFE044674B126462888C043C0042BD4B8
:100C9000E86DB0F5005F20D00DDCA0B1B0F5805F4D
:100CA0000FD115E0EA6CDBF8001021F030011143A0
:100CB000CBF80010E8E7B0F5405F13D0B0F5804FF7
:100CC00010D001240FE0386840F40030386009E0AB
:100CD0000198002101F032FE03E00098002101F0AC
:100CE000BDFE04468CB126462888C043800429D422
:100CF000286EB0F5403F23D010DC08B3B0F5803F3C
:100D000014D0B0F5003F0FD115E0EA6DDAF800100D
:100D100021F4E0411143CAF80010E5E7B0F5802F57
:100D20000ED0B0F5A02F0BD001240AE001980121CC
:100D300001F004FE03E00098012101F08FFE04465B
:100D400094B126462888C04340042AD4D5F8AC0084
:100D5000B0F1405F23D010DC08B3B0F1805F14D055
:100D6000B0F1005F0FD115E02A6EDAF8001021F41F
:100D7000E0211143CAF80010E4E7B0F1804F0ED033
:100D8000B0F1A04F0BD001240AE00198012101F03D
:100D9000D5FD03E00098012101F060FE044674B126
:100DA00026462888C04300041FD4E86ED8B1B0F1AD
:100DB000805F0ED0B0F1005F10D0012414E0D5F8B0
:100DC000AC20D8F8001021F0E0411143C8F8001021
:100DD000E7E7386840F40030386004E0019801210A
:100DE00001F0ACFD044674B126462868C043C0013A
:100DF0001ED4A86CD0B101280ED0022811D003282F
:100E000014D0012413E0EA6EDAF8001021F040510A
:100E10001143CAF80010E8E7386840F40030386041
:100E200004E00198022101F089FD04466CB12646D8
:100E30002868C043400255D41F48016841F48071BE
:100E40000160FFF741FC81460EE0AA6CDBF8001060
:100E500021F003011143CBF80010E9E7FFF734FC60
:100E6000A0EB090064283BD813480068C005F5D5FD
:100E7000BCBBDFF84090B5F8B01009F14409D9F8CF
:100E8000000001F4407100F44070884211D0D9F89C
:100E90000010D9F8002021F4407142F48032C9F8E2
:100EA0000020D9F8002022F48032C9F80020C9F8C7
:100EB000001003E02C44025800480258D5F8B00056
:100EC000B0F5807F19D1FFF7FFFB029011E000BF62
:100ED000FFF7FAFB0299411A41F28830814208D9A2
:100EE000032426462878DFF81494C043C00721D095
:100EF0003CE0D9F800008007EAD5D5F8B010C1F37E
:100F000001200328FE480DD0016821F47C510160C6
:100F1000B5F8B020D9F80010C2F30B021143C9F89C
:100F20000010DFE7F74A036802EA111223F47C514C
:100F30001143ECE7A86F182816D005DCA0B10828EB
:100F400008D0102804D10AE020280DD028280BD082
:100F500001240AE00198012101F0F0FC03E000986F
:100F6000012101F07BFD044664B126462878C04388
:100F700080071ED4686F062819D2DFE800F0160C2F
:100F800011161616AA6FD9F8001021F03801114376
:100F9000C9F80010EAE70198012101F0CFFC03E055
:100FA0000098012101F05AFD04467CB100E00124C3
:100FB00026462878C04340071FD4D5F8900006285D
:100FC00019D2DFE800F0160C111616166A6FD9F860
:100FD000001021F007011143C9F80010E9E701985A
:100FE000012101F0ABFC03E00098012101F036FD86
:100FF0000446A4B100E0012426462878C0438006B8
:101000002BD4D5F88C00B0F1405F24D011DC10B3A4
:10101000B0F1805F15D0B0F1005F10D116E0D5F8C7
:101020009020D8F8001021F007011143C8F80010F3
:10103000E3E7B0F1804F0ED0B0F1A04F0BD0012408
:101040000AE00198002101F079FC03E000980221F8
:1010500001F004FD044694B126462878C0434006BA
:101060002BD4D5F89800B0F5406F24D011DC10B324
:10107000B0F5806F15D0B0F5006F10D116E0D5F83F
:101080008C20D9F8001021F0E0411143C9F800107C
:10109000E3E7B0F5805F0ED0B0F5A05F0BD0012480
:1010A0000AE00198002101F049FC03E000980221C8
:1010B00001F0D4FC044694B126462878C0430006CB
:1010C0002BD4D5F89C00B0F5C04F24D011DC10B360
:1010D000B0F5005F15D0B0F5804F10D116E0D5F80F
:1010E0009820D8F8001021F4E0511143C8F80010FE
:1010F000E3E7B0F5004F0ED0B0F5204F0BD0012440
:101100000AE00198002101F019FC03E00098022197
:1011100001F0A4FC044654B126462878C0430007D9
:101120001ED4D5F88000B0F5805F0AD00FE0D5F866
:101130009C20D8F8001021F460411143C8F8001039
:10114000EBE70098022101F089FC00B10126D5F8F7
:101150008020D9F8001021F440511143C9F8001043
:101160002878C043C00613D4D5F89400B0F5807F2A
:1011700005D10098022101F071FC00B10126D5F8DB
:101180009420D8F8001021F440711143C8F80010E1
:101190002868C043000316D4D5F8A00038B1B0F5D4
:1011A000803F09D0B0F5003F0BD001240AE0019840
:1011B000002101F0C3FB03E00098022101F04EFC86
:1011C00004468CB126462868C043400322D4D5F893
:1011D0008400B0F5801F11D0B0F5001F13D0B0F51A
:1011E000401F15D0012414E0D5F8A020D8F8001035
:1011F00021F440311143C8F80010E4E7386840F4A6
:101200000030386004E00098012101F027FC04461A
:101210005CB126462868C043C0031CD4286D70B159
:10122000B0F5803F10D0012414E0D5F88420D9F81F
:10123000001021F440111143C9F80010EAE73868A2
:1012400040F40030386004E00198022101F076FBA0
:101250000446DCB126462868C043800005D40098C7
:10126000022101F0FBFB00B101262868C043800386
:101270001BD4E86FB8B1B0F5807F10D0B0F5007F17
:1012800011D0B0F5407F0ED001240DE02A6DDBF8BF
:10129000001021F480311143CBF80010DBE73868EF
:1012A00040F4003038607CB326462868C043C00252
:1012B00007D42A6FDAF8001021F000411143CAF870
:1012C00000102868C043800207D4AA6EDAF8001024
:1012D00021F080711143CAF800102868C043400013
:1012E00009D40748016821F4004101600168D5F87C
:1012F000B420114301602868C04306E054440258FA
:1013000010440258CFFFFF001DE007D46A6DDBF8E0
:10131000001021F040511143CBF800102868C04361
:10132000000208D4D5F88820D9F8001021F4400133
:101330001143C9F8001028790024C04300F00100CF
:10134000204309D00EE0EA6FD9F8001021F4407173
:101350001143C9F80010A8E70198002101F0EEFA46
:1013600000B106462879C04300F00200204305D1B1
:101370000198012101F0E2FA00B106462879C04344
:1013800000F00400204305D10198022101F0D6FAB3
:1013900000B106462879C04300F00800204305D17B
:1013A0000098002101F05AFB00B106462879C0439D
:1013B00000F01000204305D10098012101F04EFB00
:1013C00000B106462879C04300F02000044304D150
:1013D0000098022101F042FB00B916B10120BDE8DE
:1013E000FE8F0020FBE700002DE9F05F04000F46B0
:1013F0007ED0DFF83882D8F8000000F00F00B84245
:101400000CD2D8F8001021F00F013943C8F80010B1
:10141000D8F8000000F00F00B84269D12078844D60
:1014200040070AD52069296801F07001884204D973
:10143000296821F070010143296020787C4E361D17
:1014400000070AD56069316801F07001884204D94B
:10145000316821F07001014331602078C0060AD55F
:10146000A069316801F4E061884204D9316821F44F
:10147000E061014331602078DFF8B4B180060BF100
:10148000080B0CD5E1695846DBF8002002F0700229
:10149000914204D9026822F070020A430260207867
:1014A00080070AD5E068296801F00F01884204D955
:1014B000296821F00F01014329602078C0073ED040
:1014C0005B49A2682868183920F4706010432860CE
:1014D0006068022818D0032819D00968012819D09B
:1014E000490700294ADADFF848A1AAF1080A00E012
:1014F00044E0DAF8002022F007020243CAF8002094
:10150000FFF7E2F8814612E009688903E9E7096814
:101510008901E6E7C905E4E7FFF7D6F8A0EB090182
:1015200041F28830814202D90320BDE8F09F616812
:10153000DAF8000000F03800B0EBC10FECD12078F1
:1015400080070AD5E068296801F00F01884204D2BB
:10155000296821F00F0101432960D8F800104046A6
:1015600001F00F01B9420BD9016821F00F01394395
:101570000160006800F00F00B84201D00120D4E7FC
:10158000207840070AD52069296801F07001884257
:1015900004D2296821F070010143296020780007F6
:1015A0000AD56069316801F07001884204D231685F
:1015B00021F07001014331602078C0060AD5A0698E
:1015C000316801F4E061884204D2316821F4E061BD
:1015D00001433160207880060CD5E1695846DBF87C
:1015E000002002F07002914204D2026822F07002E0
:1015F0000A43026000F088F80E492A682B68C2F39B
:10160000032203F00F038A5CC95C02F01F0201F0A1
:101610001F01D040084A20FA01F111600749086013
:1016200007480068BDE8F05FFFF782B9002000526C
:1016300018440258602F0008100000240C000024F9
:101640000400002470B5144C3F220260124A246842
:101650000832131D114D04F00704446016681C1D68
:1016600006F470668660166806F00F06C66012689B
:1016700002F0700202611A6802F0700242611A6898
:1016800002F4E0628261226802F07002C26128689E
:1016900000F00F00086070BD104402580020005296
:1016A00030B500F031F80B4A0B490C4B1568146843
:1016B000C5F3032204F00F048A5C095D02F01F02E7
:1016C00001F01F01D040064A20FA01F119601060B4
:1016D000084630BD18440258602F0008100000244E
:1016E0000C00002400B5FFF7DBFF05490968054A37
:1016F000C1F30211515C01F01F01C84000BD0000A0
:101700001C440258602F0008454970B545480968D7
:10171000434B103B11F0380208D00111082A03D0C6
:10172000102A0BD0182A0BD0084670BD19688906FC
:10173000FBD51968C1F3C101C84070BD3A4870BDFE
:101740003749374D18310C1D24350A680968266859
:101750002D6802F0030406F00102C1F30511C5F380
:10176000CC0515FB02F200EE102AB8EE400AE9B3F0
:101770002F4ADFED2E0AB7EE001A6CB1DFED2D1AFD
:10178000012C01D0022C43D002EE101A1068F8EEA2
:10179000422A81EEA22A1EE01C68A40611D51B680D
:1017A00001EE901A1168C3F3C103F8EE612AD84024
:1017B00001EE900AC1F30800F8EE611A81EEA22A48
:1017C0000BE001EE901ADFED1C2A00BFF8EE611A63
:1017D000106882EEA12AC0F3080001EE900AF8EE2C
:1017E000611A40EE201A31EE810A00E015E022EE87
:1017F000000A1068C0F34620401C00EE900AF8EE84
:10180000600A80EE201ABCEEC10A10EE100A70BD0C
:1018100001EE901ADFED092AD8E7002070BD000024
:10182000104402580090D00340787D010000003938
:10183000304402580024744A0024744C20BCBE4B2F
:101840002DE9F05F04007DD0FF4F2078FE4D183762
:10185000DFF8F483103DC00748D0D8F8000039689D
:1018600000F03800102815D0182803D101F003002B
:1018700002280FD06068B0F5803F12D010B1B0F5EB
:10188000A02F18D0286820F480302860286820F421
:10189000802009E02868800328D560680028D2D01D
:1018A00024E0286840F480302860606888B1FEF742
:1018B0000BFF064609E0286840F480202860F0E726
:1018C000FEF702FF801B64287ED828688003F7D5C6
:1018D0000CE0FEF7F9FE064605E000BFFEF7F4FE59
:1018E000801B6428F0D828688003F7D4207880070C
:1018F00056D5D8F80000DFF85093396810F038005A
:10190000A9F10C090ED0182801D188070AD0E06887
:10191000A8B3296821F0190101432960FEF7D4FE1C
:10192000064628E02868400702D5E06800288AD0EB
:10193000E168286820F0190008432860FEF7C4FE1B
:10194000064606E0D2E000BFFEF7BEFE801B02287E
:10195000BAD828684007F7D5217CD9F8002022F0B2
:10196000FE4242EA0161C9F8001019E0FEF7ACFE40
:10197000801B0228A8D828684007F7D5ECE7FFE7C6
:10198000286820F001002860FEF79EFE064604E06D
:10199000FEF79AFE801B022896D828684007F7D4E5
:1019A0002078C00646D5D8F80000DFF89C92396848
:1019B00000F03800A9F10409082812D0182805D130
:1019C00001F00300012800E0CEE00AD0E069002821
:1019D000286820D040F080002860FEF775FE06469B
:1019E00015E02868C00502D5E06980287ED194F80A
:1019F0002010D9F8002022F07C5242EA0161C9F897
:101A0000001017E0FEF760FE801B0228A0D82868AF
:101A1000C005F7D5EBE720F080002860FEF754FE04
:101A2000064604E0FEF750FE801B022890D8286886
:101A3000C005F7D42078000729D583486169643050
:101A400000298146016811D041F001010160FEF7D3
:101A50003BFE064605E000BFFEF736FE801B02286F
:101A600088D8D9F800008007F6D510E021F00101F0
:101A70000160FEF729FE064605E000BFFEF724FEE2
:101A8000801B022870D8D9F800008007F6D420788F
:101A9000800623D5A0690028286810D040F4805023
:101AA0002860FEF711FE064605E000BFFEF70CFEBB
:101AB000801B022858D828688004F7D50EE020F44F
:101AC00080502860FEF700FE064604E0FEF7FCFDAD
:101AD000801B022848D828688004F7D42078400763
:101AE00051D5DFF86891D9F8001000E015E141F414
:101AF0008071C9F80010FEF7E7FD064605E000BF5B
:101B0000FEF7E2FD801B64282ED8D9F80000C0053E
:101B1000F6D54D4EA068603601280AD008B10528D8
:101B200013D0306820F001003060306820F00400ED
:101B300002E0306840F001003060A06841F2883A6D
:101B400098B1FEF7C1FD81460AE0306840F004001C
:101B50003060EEE7FEF7B8FDA0EB0901514503D870
:101B600030688007F6D50EE072E0FEF7ADFD8146E5
:101B700006E000BFFEF7A8FDA0EB0901514567D8BC
:101B800030688007F6D4606A00287CD0DFF8B8A0FF
:101B9000D8F800100AF1200A4FF6F87B0AF1040881
:101BA000C1F3C2010329AAF104096DD002282868F3
:101BB00020F08070286003D0FEF786FD044681E0A7
:101BC000FEF782FD064604E0FEF77EFD801B02283C
:101BD00075D828688001F7D4E26A40F2F33138689A
:101BE00054F8283F884340EA021018433860217BAC
:101BF0004FF4FE0C22894FF0FE47208A4902267DD1
:101C0000521E401EA1F5007189B2C2F308021143B1
:101C1000761E0CEA00400143484607EA066211437B
:101C2000CAF80010D9F8001021F00101C9F800101D
:101C3000D8F80030266A23EA0B0343EAC601C8F845
:101C40000010D9F8001004E010440258004802586F
:101C500035E0A26921F00C011143C9F800100168B8
:101C6000E26921F0020111430160016841F4803111
:101C70000160016841F400310160016841F4802194
:101C80000160016801E06CE020E041F001010160C9
:101C9000286840F080702860FEF716FD044604E0D6
:101CA000FEF712FD001B022809D828688001F7D52D
:101CB00057E000BFFEF708FD001B022802D90320F1
:101CC000BDE8F09F28688001F4D44AE03968012813
:101CD000DAF8000021D0A26A01F0030393421CD17C
:101CE000E26AC1F305118A4217D1216BC0F30802E1
:101CF000491E8A4211D1616BC0F34622491E9142AE
:101D00000BD1A16BC0F30642491E914205D1E16B94
:101D1000C0F30660491E814201D00120D0E7A16CCA
:101D20004646D8F80000C0F3CC00814219D0D9F85B
:101D300000004D4620F00100C9F80000FEF7C4FC89
:101D40004FEA0007FEF7C0FCB842FBD0A26C306837
:101D500020EA0B0040EAC2003060286840F0010031
:101D600028600020ACE700002DE9F047040029D0EE
:101D7000594A4FF000092068584B594D9042C4F819
:101D8000289006D0984204D0A84202D0E1680F29DA
:101D900018D8E1684FF0010AE76B0831C9080AEB6F
:101DA00057167143904205D0984203D0A84201D003
:101DB000082907D8904203D0984201D0A84204D104
:101DC000102902D90120BDE8F08794F8810020B9DC
:101DD000204684F8809000F085F8022084F8810085
:101DE0002068016821F0010101602068A169826812
:101DF000B1F1806F02F4F81110D16268B2F5800F72
:101E000001D01AB10AE0A26B22B107E0A26BB2F1D5
:101E1000805F03D1026842F4805202606068400231
:101E200009D5E068072806D32068236D026822F4EC
:101E300080721A4303E02068026822F48072026014
:101E4000A66AE069E26B25683043E3680A43104301
:101E50001843A860D4E90D02D4E90581636A2569B5
:101E60001843D4F820C00A43266810432843A56DC0
:101E7000D4E90172D4E9123140EA080040EA0C00CA
:101E800038430843104318432843F060606868B93A
:101E90002068816821F4C05141F4006181602068AC
:101EA000816821F4C06141F4806181602068016D26
:101EB00021F0010101656068400206D52068626D6D
:101EC000C16821F000411143C160C4F8849084F8D6
:101ED00081A0002077E7000000300140003800407A
:101EE000003C004010B5B4B0044614212EA8FEF703
:101EF0005DFAB8216846FEF759FA18492068884209
:101F00002AD1811400201790CDE900106846FEF711
:101F1000CDFD08B1FEF7AFFA1148016841F48051D8
:101F20000160006800F4805033900D48103801685B
:101F300041F00101016000680DF1B80C022100F0D0
:101F400001003390A0200122032305248CE81F0008
:101F500004482EA9FEF7A4FA34B010BD00300140A9
:101F6000F0440258000002582DE9F84F044600687A
:101F70009946174600F1200B8A46FEF7A5FB064658
:101F800094F88100012839D1BAF1000F7ED0002FDA
:101F9000FCD094F88000012830D0A26800254FF0D2
:101FA000010884F88080032184F88110C4F88450EB
:101FB000C4F85CA06566A4F86850656725672C3492
:101FC000B2F5C02FA786E786E58754F82C0D18D008
:101FD000C16821F4C02141F40031C160206841682A
:101FE0006FF30F01394341602068016841F001013E
:101FF00001606068B0F5800F08D00CE00220BDE8F9
:10200000F88F016841F400610160E7E7206801682A
:1020100041F400710160E0680F281CD820E02068BE
:10202000416989070BD5E16D09680162E06D001D0A
:10203000E065B4F86200401EA4F862000BE0FEF711
:1020400043FB811B494503D3B9F1FF3F03D09DE01A
:10205000B9F1000F32D0B4F862000028DFD179E086
:1020600007282FD872E02068416989071ED5B4F887
:10207000621001290DD9E16B59B1E16D0968016266
:10208000E06D001DE065B4F8620000E07CE0801EB9
:1020900009E0E06D0188ABF80010E06D801CE065A0
:1020A000B4F86200401EA4F862000BE0FEF70CFBDF
:1020B000811B494503D3B9F1FF3F03D066E0B9F175
:1020C000000F63D0B4F862000028CCD142E0206851
:1020D000416989072ED5B4F8621003290CD9E16B48
:1020E000402909D9E16D09680162E06D001DE065D4
:1020F000B4F86200001F1AE0B4F8621001290CD98C
:10210000E16B51B1E06D0188ABF80010E06D801C0F
:10211000E065B4F86200801E09E0E16D097880F89E
:102120002010E06D401CE065B4F86200401EA4F889
:1021300062000BE0FEF7C8FA811B494503D3B9F1F1
:10214000FF3F03D022E0B9F1000F1FD0B4F86200C6
:102150000028BCD100224B4608212046009600F002
:102160006BFD28B1D4F8840040F02000C4F884004E
:10217000204600F003FD84F88180D4F8840084F8C0
:10218000805000283FF43BAF012038E7204600F0A4
:10219000F5FCD4F8841084F8805041F48071C4F8C0
:1021A000841084F88180032029E7704770477047C6
:1021B00010B5040003D094F83D0010B107E00120F1
:1021C00010BD002084F83C00204600F022F80220D8
:1021D00084F83D002068211D00F006FE012084F8EF
:1021E000480084F83E0084F83F0084F8400084F8FA
:1021F000410084F8420084F8430084F8440084F8E5
:10220000450084F8460084F8470084F83D0000202B
:1022100010BD704790F83D10012901D00120704792
:102220001A4A022180F83D100168CB6843F001038F
:10223000CB60006890421AD0B0F1804F17D014499B
:10224000884214D01349884211D0134988420ED0D5
:10225000124988420BD01249884208D0114988425D
:1022600005D01149884202D01049884207D18168BF
:102270000F4A1140062906D0B1F5803F03D001680E
:1022800041F00101016000207047000000000140A2
:102290000004004000080040000C00400004014021
:1022A000001800400040014000E0004000E4004011
:1022B0000700010070472DE9F0410446006800273F
:1022C000C6680569A90713D5B10711D5FA1E0261C1
:1022D00001212177206880698007204602D0FFF71E
:1022E000E9FF04E000F08BF8204600F089F827773A
:1022F000680716D5700714D5226802206FF0040114
:10230000116120772068806910F4407F204602D058
:10231000FFF7D0FF04E000F072F8204600F070F8FC
:102320002777280715D5300713D5226804206FF0CA
:102330000801116120772068C0698007204602D01B
:10234000FFF7B8FF04E000F05AF8204600F058F814
:102350002777E80616D5F00614D5226808206FF016
:102360001001116120772068C06910F4407F204679
:1023700002D0FFF79FFF04E000F041F8204600F094
:102380003FF82777E80708D0F00706D021686FF0FC
:1023900001000861204600F035F8280601D4A804A1
:1023A00008D5300606D521686FF402500861204632
:1023B000FFF7FCFEE80508D5300606D521686FF466
:1023C000807008612046FFF7F0FE680608D57006A9
:1023D00006D521686FF040000861204600F01CF827
:1023E000A8060AD5B00608D521686FF0200008615C
:1023F0002046BDE8F041FFF7DABEBDE8F081704746
:102400007047000000680349884201D1FEF75ABABC
:1024100070470000001400407047FEE72DE9F041CE
:102420001C4617460D4606462A2000F071F9304634
:1024300000F064F9384600F061F92B2000F068F9EB
:102440001435A8B200F05AF91434A0B200F056F9CD
:10245000BDE8F0412C2000F05BB92DE9F0470C46B7
:102460008046581E1F46511E164683B2DDF8209046
:102470008AB221464046FFF7D1FF0AE0454604E014
:10248000484600F03BF96D1CADB2B542F8D3641C70
:10249000A4B2BC42F2D3BDE8F0870000F0B50D4F06
:1024A000151A059CE6B24FEA142C0FE0C1EB01129D
:1024B000002407EB421202EB400204E082F800C065
:1024C0005670921C641CAC42F8D3491C9942EDD35F
:1024D000F0BD00003C01002410B5664C00224021F4
:1024E0002046FEF7EBF86420FDF7C8FF01222046E6
:1024F0004021FEF7E3F86420FDF7C0FF01225E48AB
:102500001146FEF7DBF86420FDF7B8FF112000F05C
:10251000FFF87820FDF7B2FF362000F0F9F8002030
:1025200000F00AF93A2000F0F3F8052000F004F971
:10253000B22000F0EDF80C2000F0FEF80C2000F0C6
:10254000FBF8002000F0F8F8332000F0F5F8332015
:1025500000F0F2F8B72000F0DBF8352000F0ECF8DE
:10256000BB2000F0D5F8322000F0E6F8C22000F0E1
:10257000CFF8012000F0E0F8C32000F0C9F81520E2
:1025800000F0DAF8C42000F0C3F8202000F0D4F8FE
:10259000C62000F0BDF80F2000F0CEF8D02000F0EB
:1025A000B7F8A42000F0C8F8A12000F0C5F8E0209A
:1025B00000F0AEF8D02000F0BFF8082000F0BCF822
:1025C0000E2000F0B9F8092000F0B6F8092000F05C
:1025D000B3F8052000F0B0F8312000F0ADF833205A
:1025E00000F0AAF8482000F0A7F8172000F0A4F89F
:1025F000142000F0A1F8152000F09EF8312000F022
:102600009BF8342000F098F8E12000F081F8D02009
:1026100000F092F8082000F08FF80E2000F08CF8FF
:10262000092000F089F8092000F086F8152000F054
:1026300083F8312000F080F8332000F07DF8482046
:1026400000F07AF8172000F077F8142000F074F802
:10265000152000F071F8312000F06EF8342000F001
:102660006BF8212000F054F8BDE81040292000F05C
:102670004FB8000000000258000402582DE9F04154
:1026800000211A4E1A4CF0224FF48C730846FFF7C3
:10269000C5FE184F4FF6FF784EF6602500223846EB
:1026A0002021FEF70BF8144843462A463146FFF72F
:1026B0005BFCA4F56A44384601222021603C2E448C
:1026C000FDF7FCFFAC42E9D2002238462021FDF79D
:1026D000F5FFA2B2084843463146FFF745FC3846AD
:1026E000BDE8F04101222021FDF7E8BF3C010024B4
:1026F000000D0200000802586800002410B50446CE
:10270000000A00F019F8E0B2BDE8104000F014B87B
:1027100070B5084C0022102105462046FDF7CEFF7B
:10272000284600F009F82046BDE87040012210213B
:10273000FDF7C4BF0008025831B5094C0022202122
:102740002046FDF7BBFF0748FF2301226946FFF73C
:102750000BFC012220462021FDF7B0FF38BD000010
:1027600000080258680000242DE9F04786B01421C3
:102770006846FDF71BFE3E48016841F00401016018
:10278000016801F004010591016841F080010160D8
:10279000016801F080010591016841F001010160CB
:1027A000016801F001010591016841F00201016039
:1027B000016801F002010591016841F040010160EA
:1027C000006801222B4F402100F040000590384660
:1027D000FDF774FFDFF8A080002210214046FDF7CE
:1027E0006DFF012240462021FDF768FFDFF88CA035
:1027F000012211465046FDF761FFDFF88490012267
:1028000080214846FDF75AFF002250462021FDF75F
:1028100055FF0124694600260225039540208DE8D6
:1028200051003846FDF73CFE302003958DE85100FD
:1028300069464046FDF734FE0395694600945046CC
:10284000CDE90146FDF72CFE802003958DE851006F
:1028500069464846FDF724FE20206946CDE900047C
:10286000CDE902455046FDF71BFE06B0BDE8F087F6
:10287000E0440258000002580008025800040258C0
:10288000001802581348002110B5114C0123124AB8
:102890000460C0E90121C0E9033141618161C16186
:1028A0000162FDF76DFF08B1FDF7E5FD0948002164
:1028B000FDF710FF08B1FDF7DEFD06480021FDF72A
:1028C00035FF002803D0BDE81040FDF7D4BD10BD92
:1028D00000540040140000245D3E302070B51448C0
:1028E0004FF480050021114C2A010723C0E9033170
:1028F000C0E90512C1616E11016241628162C1626B
:1029000041638163C163016441648164C1640165A1
:102910004165816580E87000FFF726FA002803D042
:10292000BDE87040FDF7A7BD70BD0000003001405C
:1029300068000024FEE7FEE7704700002DE9F0473D
:10294000454D044689464FF0000A2868C043800779
:102950000AD0414E283E306820F080603060FDF79C
:10296000B3FE0746B04608E00120BDE8F08700BF8F
:10297000FDF7AAFEC01B022867D8D8F800000001A6
:10298000F6D4206829684FF4FE0721F47C313E021A
:1029900041EA00302860207AA389B4F804C04002DC
:1029A0002D4D2D495B1E227CACF1010C1035091D0B
:1029B000A0F5007080B2521ECCF3080C07EA034366
:1029C00040EA0C00184306EA0262104328600868D7
:1029D000626920F0C000104308600A68A06922F014
:1029E000200202430A60281D0A6822F010020A60D1
:1029F00002684FF6F873E4699A4342EAC40202603F
:102A00000868B9F1000F40F010020A6011D00868A0
:102A1000B9F1010F11D040F400100860D8F800009F
:102A2000444640F08060C8F80000FDF74DFE0546C2
:102A30000DE0086840F40020EFE740F48010ECE778
:102A4000FDF742FE401B022801D903208DE72068D4
:102A50000001F5D5504688E7284402582DE9F04793
:102A6000454D044689464FF0000A2868C043800758
:102A70000AD0414E283E306820F080503060FDF78B
:102A800023FE0746B04608E00120BDE8F08700BFFE
:102A9000FDF71AFEC01B022867D8D8F80000800096
:102AA000F6D4208829684FF4FE0721F07C713E029D
:102AB00041EA00502860207AA389B4F804C040029B
:102AC0002D4D2D495B1E227CACF1010C1835091DE2
:102AD000A0F5007080B2521ECCF3080C07EA034345
:102AE00040EA0C00184306EA0262104328600868B6
:102AF000626920F44060104308600A68A06922F40B
:102B0000007202430A60281D0A6822F480720A607B
:102B100002684FF6F873E4699A4342EAC40202601D
:102B20000868B9F1000F40F480720A6011D008689B
:102B3000B9F1010F11D040F080700860D8F80000A2
:102B4000444640F08050C8F80000FDF7BDFD054642
:102B50000DE0086840F48000EFE740F40000ECE787
:102B6000FDF7B2FD401B022801D903208DE7206844
:102B70008000F5D5504688E72844025810B5026811
:102B800040F26F335169946944F00804946102681B
:102B9000946944F0100494610268146824F00104FC
:102BA0001460026814699C4314610268936823F4FA
:102BB0004043936090F88120042A0CD08A060AD5FD
:102BC000D0F8842042F08002C0F884200268936923
:102BD00043F02003936190F88120032A0CD04A0629
:102BE0000AD5D0F8842042F00402C0F8842002689C
:102BF000936943F0400393618A050AD5D0F8842095
:102C000042F00102C0F884200268936943F4007323
:102C10009361C9050AD5D0F8841041F00801C0F8C5
:102C2000841001688A6942F480728A610021A0F8E8
:102C30006210A0F86A1010BD2DE9F0411C4616463E
:102C40000D460746DDF818800AE000BFFDF73CFDA1
:102C5000A0EB0800A04202D3601C01D00BE054B1ED
:102C60003868406935EA000007D00020B042EDD056
:102C70000020BDE8F0810320FBE70120F6E7704764
:102C80007047000030B59DB04C216846FDF78EFBC3
:102C9000202113A8FDF78AFB0220FDF7DDFE1E4868
:102CA0000025016821F4404141F4004101600168C0
:102CB00001F440411B9101688904FCD540240220A5
:102CC00000900122CDE90324CDE909050C21CDE9CD
:102CD0000D200FAA0423CDE90B3182E823006846BA
:102CE0001295FEF7ADFD08B172B6FEE708221A9400
:102CF000CDE91624D30113AA3F200321CDE91843BF
:102D000082E82300012113A8FEF76EFB002801D002
:102D100072B6FEE71DB030BD184802582748F0B51E
:102D2000274A016841F470010160106800F00F004B
:102D3000072804D2106820F00F00C01D1060214940
:102D40000020204C10340B681F4D43F001030B6032
:102D500020600B682B400B60136803F00F03072BF8
:102D600004D9136823F00F03DB1D1360154C174AB9
:102D70001834174B261D371D2060124C154D283472
:102D80003060261D3860371D23603B1D35601C1DDB
:102D90003A60251D2E1D1860331D226028603260A8
:102DA00018600A6843F2D204064B0B4D22F48022CD
:102DB00060330A6018602C60F0BD000088ED00E010
:102DC00000200052004402587FEDF6EA8002010123
:102DD000000202020000FF01004000520148FFF71C
:102DE0006ABA0000F00000242DE9F0472D4B4FF0A7
:102DF000804A2D4D026898422C4E2D4F2D4C09D003
:102E0000504507D0A84205D0B04203D0B84201D007
:102E1000A04205D1D1F804C022F070024CEA0202AF
:102E2000DFF894C0DFF894809842DFF8949015D0D2
:102E3000504513D0A84211D0B0420FD0B8420DD0A7
:102E4000A0420BD0604509D0404507D0484505D089
:102E50001C4DA84202D01C4DA84203D1CD6822F4DB
:102E600040722A434D6922F080022A430260984250
:102E70008A68C2620A68826207D0A04205D06045B3
:102E800003D0404501D0484501D1096901630121C2
:102E900041610169C90703D0016921F001010161A4
:102EA000BDE8F08700000140000400400008004039
:102EB000000C00400004014000400140004401407B
:102EC0000048014000E0004000E40040FEE7090740
:102ED00000284FEA116104DB00F1E02080F80014C3
:102EE000704700F00F0000F1E02080F8141D7047DB
:102EF00008B5FDF7EFFCFFF7C5FEFFF735FCFFF760
:102F0000C1FCFFF7EBFCFFF7E7FA002400944FF455
:102F10008C762146F02233462046FFF79EFA0021A8
:102F20003346F02208464FF4FC650095FFF7B6FAE9
:102F3000FFF7A4FB00213346F02208460094FFF778
:102F40008CFA00213346F02208460095FFF7A6FAD6
:102F5000FFF794FBFEE74FF04070E1EE100A704778
:102F6000000000000102030401020304060708092F
:102F7000902F00080000002414000000080300083F
:102F8000A42F0008140000248C140200240300085D
:102F90000100000010000000000000000090D003BD
:042FA0000090D003CA
:04000005080002CD20
:00000001FF
